{
  "contractName": "Slime",
  "abi": [
    {
      "inputs": [
        {
          "internalType": "string",
          "name": "name",
          "type": "string"
        },
        {
          "internalType": "string",
          "name": "symbol",
          "type": "string"
        },
        {
          "internalType": "uint256",
          "name": "maxNftSupply",
          "type": "uint256"
        }
      ],
      "stateMutability": "nonpayable",
      "type": "constructor"
    },
    {
      "anonymous": false,
      "inputs": [
        {
          "indexed": true,
          "internalType": "address",
          "name": "owner",
          "type": "address"
        },
        {
          "indexed": true,
          "internalType": "address",
          "name": "approved",
          "type": "address"
        },
        {
          "indexed": true,
          "internalType": "uint256",
          "name": "tokenId",
          "type": "uint256"
        }
      ],
      "name": "Approval",
      "type": "event"
    },
    {
      "anonymous": false,
      "inputs": [
        {
          "indexed": true,
          "internalType": "address",
          "name": "owner",
          "type": "address"
        },
        {
          "indexed": true,
          "internalType": "address",
          "name": "operator",
          "type": "address"
        },
        {
          "indexed": false,
          "internalType": "bool",
          "name": "approved",
          "type": "bool"
        }
      ],
      "name": "ApprovalForAll",
      "type": "event"
    },
    {
      "anonymous": false,
      "inputs": [
        {
          "indexed": true,
          "internalType": "address",
          "name": "previousOwner",
          "type": "address"
        },
        {
          "indexed": true,
          "internalType": "address",
          "name": "newOwner",
          "type": "address"
        }
      ],
      "name": "OwnershipTransferred",
      "type": "event"
    },
    {
      "anonymous": false,
      "inputs": [
        {
          "indexed": true,
          "internalType": "address",
          "name": "from",
          "type": "address"
        },
        {
          "indexed": true,
          "internalType": "address",
          "name": "to",
          "type": "address"
        },
        {
          "indexed": true,
          "internalType": "uint256",
          "name": "tokenId",
          "type": "uint256"
        }
      ],
      "name": "Transfer",
      "type": "event"
    },
    {
      "inputs": [
        {
          "internalType": "address",
          "name": "to",
          "type": "address"
        },
        {
          "internalType": "uint256",
          "name": "tokenId",
          "type": "uint256"
        }
      ],
      "name": "approve",
      "outputs": [],
      "stateMutability": "nonpayable",
      "type": "function"
    },
    {
      "inputs": [
        {
          "internalType": "address",
          "name": "owner",
          "type": "address"
        }
      ],
      "name": "balanceOf",
      "outputs": [
        {
          "internalType": "uint256",
          "name": "",
          "type": "uint256"
        }
      ],
      "stateMutability": "view",
      "type": "function",
      "constant": true
    },
    {
      "inputs": [],
      "name": "baseURI",
      "outputs": [
        {
          "internalType": "string",
          "name": "",
          "type": "string"
        }
      ],
      "stateMutability": "view",
      "type": "function",
      "constant": true
    },
    {
      "inputs": [
        {
          "internalType": "uint256",
          "name": "tokenId",
          "type": "uint256"
        }
      ],
      "name": "getApproved",
      "outputs": [
        {
          "internalType": "address",
          "name": "",
          "type": "address"
        }
      ],
      "stateMutability": "view",
      "type": "function",
      "constant": true
    },
    {
      "inputs": [
        {
          "internalType": "address",
          "name": "owner",
          "type": "address"
        },
        {
          "internalType": "address",
          "name": "operator",
          "type": "address"
        }
      ],
      "name": "isApprovedForAll",
      "outputs": [
        {
          "internalType": "bool",
          "name": "",
          "type": "bool"
        }
      ],
      "stateMutability": "view",
      "type": "function",
      "constant": true
    },
    {
      "inputs": [],
      "name": "maxSlimePurchase",
      "outputs": [
        {
          "internalType": "uint256",
          "name": "",
          "type": "uint256"
        }
      ],
      "stateMutability": "view",
      "type": "function",
      "constant": true
    },
    {
      "inputs": [],
      "name": "maxSlimes",
      "outputs": [
        {
          "internalType": "uint256",
          "name": "",
          "type": "uint256"
        }
      ],
      "stateMutability": "view",
      "type": "function",
      "constant": true
    },
    {
      "inputs": [],
      "name": "name",
      "outputs": [
        {
          "internalType": "string",
          "name": "",
          "type": "string"
        }
      ],
      "stateMutability": "view",
      "type": "function",
      "constant": true
    },
    {
      "inputs": [],
      "name": "owner",
      "outputs": [
        {
          "internalType": "address",
          "name": "",
          "type": "address"
        }
      ],
      "stateMutability": "view",
      "type": "function",
      "constant": true
    },
    {
      "inputs": [
        {
          "internalType": "uint256",
          "name": "tokenId",
          "type": "uint256"
        }
      ],
      "name": "ownerOf",
      "outputs": [
        {
          "internalType": "address",
          "name": "",
          "type": "address"
        }
      ],
      "stateMutability": "view",
      "type": "function",
      "constant": true
    },
    {
      "inputs": [],
      "name": "renounceOwnership",
      "outputs": [],
      "stateMutability": "nonpayable",
      "type": "function"
    },
    {
      "inputs": [
        {
          "internalType": "address",
          "name": "from",
          "type": "address"
        },
        {
          "internalType": "address",
          "name": "to",
          "type": "address"
        },
        {
          "internalType": "uint256",
          "name": "tokenId",
          "type": "uint256"
        }
      ],
      "name": "safeTransferFrom",
      "outputs": [],
      "stateMutability": "nonpayable",
      "type": "function"
    },
    {
      "inputs": [
        {
          "internalType": "address",
          "name": "from",
          "type": "address"
        },
        {
          "internalType": "address",
          "name": "to",
          "type": "address"
        },
        {
          "internalType": "uint256",
          "name": "tokenId",
          "type": "uint256"
        },
        {
          "internalType": "bytes",
          "name": "_data",
          "type": "bytes"
        }
      ],
      "name": "safeTransferFrom",
      "outputs": [],
      "stateMutability": "nonpayable",
      "type": "function"
    },
    {
      "inputs": [],
      "name": "saleIsActive",
      "outputs": [
        {
          "internalType": "bool",
          "name": "",
          "type": "bool"
        }
      ],
      "stateMutability": "view",
      "type": "function",
      "constant": true
    },
    {
      "inputs": [
        {
          "internalType": "address",
          "name": "operator",
          "type": "address"
        },
        {
          "internalType": "bool",
          "name": "approved",
          "type": "bool"
        }
      ],
      "name": "setApprovalForAll",
      "outputs": [],
      "stateMutability": "nonpayable",
      "type": "function"
    },
    {
      "inputs": [],
      "name": "slimePrice",
      "outputs": [
        {
          "internalType": "uint256",
          "name": "",
          "type": "uint256"
        }
      ],
      "stateMutability": "view",
      "type": "function",
      "constant": true
    },
    {
      "inputs": [
        {
          "internalType": "bytes4",
          "name": "interfaceId",
          "type": "bytes4"
        }
      ],
      "name": "supportsInterface",
      "outputs": [
        {
          "internalType": "bool",
          "name": "",
          "type": "bool"
        }
      ],
      "stateMutability": "view",
      "type": "function",
      "constant": true
    },
    {
      "inputs": [],
      "name": "symbol",
      "outputs": [
        {
          "internalType": "string",
          "name": "",
          "type": "string"
        }
      ],
      "stateMutability": "view",
      "type": "function",
      "constant": true
    },
    {
      "inputs": [
        {
          "internalType": "uint256",
          "name": "index",
          "type": "uint256"
        }
      ],
      "name": "tokenByIndex",
      "outputs": [
        {
          "internalType": "uint256",
          "name": "",
          "type": "uint256"
        }
      ],
      "stateMutability": "view",
      "type": "function",
      "constant": true
    },
    {
      "inputs": [
        {
          "internalType": "address",
          "name": "owner",
          "type": "address"
        },
        {
          "internalType": "uint256",
          "name": "index",
          "type": "uint256"
        }
      ],
      "name": "tokenOfOwnerByIndex",
      "outputs": [
        {
          "internalType": "uint256",
          "name": "",
          "type": "uint256"
        }
      ],
      "stateMutability": "view",
      "type": "function",
      "constant": true
    },
    {
      "inputs": [
        {
          "internalType": "uint256",
          "name": "tokenId",
          "type": "uint256"
        }
      ],
      "name": "tokenURI",
      "outputs": [
        {
          "internalType": "string",
          "name": "",
          "type": "string"
        }
      ],
      "stateMutability": "view",
      "type": "function",
      "constant": true
    },
    {
      "inputs": [],
      "name": "totalSupply",
      "outputs": [
        {
          "internalType": "uint256",
          "name": "",
          "type": "uint256"
        }
      ],
      "stateMutability": "view",
      "type": "function",
      "constant": true
    },
    {
      "inputs": [
        {
          "internalType": "address",
          "name": "from",
          "type": "address"
        },
        {
          "internalType": "address",
          "name": "to",
          "type": "address"
        },
        {
          "internalType": "uint256",
          "name": "tokenId",
          "type": "uint256"
        }
      ],
      "name": "transferFrom",
      "outputs": [],
      "stateMutability": "nonpayable",
      "type": "function"
    },
    {
      "inputs": [
        {
          "internalType": "address",
          "name": "newOwner",
          "type": "address"
        }
      ],
      "name": "transferOwnership",
      "outputs": [],
      "stateMutability": "nonpayable",
      "type": "function"
    },
    {
      "inputs": [],
      "name": "withdraw",
      "outputs": [],
      "stateMutability": "nonpayable",
      "type": "function"
    },
    {
      "inputs": [],
      "name": "reserveSlimes",
      "outputs": [],
      "stateMutability": "nonpayable",
      "type": "function"
    },
    {
      "inputs": [
        {
          "internalType": "string",
          "name": "ipfsBaseURI",
          "type": "string"
        }
      ],
      "name": "setBaseURI",
      "outputs": [],
      "stateMutability": "nonpayable",
      "type": "function"
    },
    {
      "inputs": [],
      "name": "flipSaleState",
      "outputs": [],
      "stateMutability": "nonpayable",
      "type": "function"
    },
    {
      "inputs": [
        {
          "internalType": "uint256",
          "name": "numberOfTokens",
          "type": "uint256"
        }
      ],
      "name": "mintSlime",
      "outputs": [],
      "stateMutability": "payable",
      "type": "function",
      "payable": true
    }
  ],
  "bytecode": "0x60806040526000600c60006101000a81548160ff02191690831515021790555060405180602001604052806000815250600d908051906020019062000046929190620001ae565b503480156200005457600080fd5b506040516200430f3803806200430f83398181016040528101906200007a9190620002e7565b8282816000908051906020019062000094929190620001ae565b508060019080519060200190620000ad929190620001ae565b505050620000d0620000c4620000e060201b60201c565b620000e860201b60201c565b80600b81905550505050620004c4565b600033905090565b6000600a60009054906101000a900473ffffffffffffffffffffffffffffffffffffffff16905081600a60006101000a81548173ffffffffffffffffffffffffffffffffffffffff021916908373ffffffffffffffffffffffffffffffffffffffff1602179055508173ffffffffffffffffffffffffffffffffffffffff168173ffffffffffffffffffffffffffffffffffffffff167f8be0079c531659141344cd1fd0a4f28419497f9722a3daafe3b4186f6b6457e060405160405180910390a35050565b828054620001bc9062000416565b90600052602060002090601f016020900481019282620001e057600085556200022c565b82601f10620001fb57805160ff19168380011785556200022c565b828001600101855582156200022c579182015b828111156200022b5782518255916020019190600101906200020e565b5b5090506200023b91906200023f565b5090565b5b808211156200025a57600081600090555060010162000240565b5090565b6000620002756200026f84620003a3565b6200036f565b9050828152602081018484840111156200028e57600080fd5b6200029b848285620003e0565b509392505050565b600082601f830112620002b557600080fd5b8151620002c78482602086016200025e565b91505092915050565b600081519050620002e181620004aa565b92915050565b600080600060608486031215620002fd57600080fd5b600084015167ffffffffffffffff8111156200031857600080fd5b6200032686828701620002a3565b935050602084015167ffffffffffffffff8111156200034457600080fd5b6200035286828701620002a3565b92505060406200036586828701620002d0565b9150509250925092565b6000604051905081810181811067ffffffffffffffff821117156200039957620003986200047b565b5b8060405250919050565b600067ffffffffffffffff821115620003c157620003c06200047b565b5b601f19601f8301169050602081019050919050565b6000819050919050565b60005b8381101562000400578082015181840152602081019050620003e3565b8381111562000410576000848401525b50505050565b600060028204905060018216806200042f57607f821691505b602082108114156200044657620004456200044c565b5b50919050565b7f4e487b7100000000000000000000000000000000000000000000000000000000600052602260045260246000fd5b7f4e487b7100000000000000000000000000000000000000000000000000000000600052604160045260246000fd5b620004b581620003d6565b8114620004c157600080fd5b50565b613e3b80620004d46000396000f3fe6080604052600436106101c25760003560e01c80636bcfea16116100f7578063a22cb46511610095578063e6fe8f3a11610064578063e6fe8f3a1461060d578063e985e9c514610638578063eb8d244414610675578063f2fde38b146106a0576101c2565b8063a22cb46514610553578063b88d4fde1461057c578063bfadebd7146105a5578063c87b56dd146105d0576101c2565b8063715018a6116100d1578063715018a6146104cf5780638cf5864c146104e65780638da5cb5b146104fd57806395d89b4114610528576101c2565b80636bcfea161461043c5780636c0360eb1461046757806370a0823114610492576101c2565b80632f745c591161016457806342842e0e1161013e57806342842e0e146103705780634f6ccce71461039957806355f804b3146103d65780636352211e146103ff576101c2565b80632f745c591461030557806334918dfd146103425780633ccfd60b14610359576101c2565b8063095ea7b3116101a0578063095ea7b31461026c5780631737e8281461029557806318160ddd146102b157806323b872dd146102dc576101c2565b806301ffc9a7146101c757806306fdde0314610204578063081812fc1461022f575b600080fd5b3480156101d357600080fd5b506101ee60048036038101906101e99190612c5c565b6106c9565b6040516101fb9190613679565b60405180910390f35b34801561021057600080fd5b50610219610743565b6040516102269190613694565b60405180910390f35b34801561023b57600080fd5b5061025660048036038101906102519190612cef565b6107d5565b6040516102639190613612565b60405180910390f35b34801561027857600080fd5b50610293600480360381019061028e9190612c20565b61085a565b005b6102af60048036038101906102aa9190612cef565b610972565b005b3480156102bd57600080fd5b506102c6610b0a565b6040516102d39190613976565b60405180910390f35b3480156102e857600080fd5b5061030360048036038101906102fe9190612b1a565b610b17565b005b34801561031157600080fd5b5061032c60048036038101906103279190612c20565b610b77565b6040516103399190613976565b60405180910390f35b34801561034e57600080fd5b50610357610c1c565b005b34801561036557600080fd5b5061036e610cc4565b005b34801561037c57600080fd5b5061039760048036038101906103929190612b1a565b610d8f565b005b3480156103a557600080fd5b506103c060048036038101906103bb9190612cef565b610daf565b6040516103cd9190613976565b60405180910390f35b3480156103e257600080fd5b506103fd60048036038101906103f89190612cae565b610e46565b005b34801561040b57600080fd5b5061042660048036038101906104219190612cef565b610edc565b6040516104339190613612565b60405180910390f35b34801561044857600080fd5b50610451610f8e565b60405161045e9190613976565b60405180910390f35b34801561047357600080fd5b5061047c610f93565b6040516104899190613694565b60405180910390f35b34801561049e57600080fd5b506104b960048036038101906104b49190612ab5565b611021565b6040516104c69190613976565b60405180910390f35b3480156104db57600080fd5b506104e46110d9565b005b3480156104f257600080fd5b506104fb611161565b005b34801561050957600080fd5b50610512611221565b60405161051f9190613612565b60405180910390f35b34801561053457600080fd5b5061053d61124b565b60405161054a9190613694565b60405180910390f35b34801561055f57600080fd5b5061057a60048036038101906105759190612be4565b6112dd565b005b34801561058857600080fd5b506105a3600480360381019061059e9190612b69565b61145e565b005b3480156105b157600080fd5b506105ba6114c0565b6040516105c79190613976565b60405180910390f35b3480156105dc57600080fd5b506105f760048036038101906105f29190612cef565b6114c6565b6040516106049190613694565b60405180910390f35b34801561061957600080fd5b5061062261156d565b60405161062f9190613976565b60405180910390f35b34801561064457600080fd5b5061065f600480360381019061065a9190612ade565b611578565b60405161066c9190613679565b60405180910390f35b34801561068157600080fd5b5061068a61160c565b6040516106979190613679565b60405180910390f35b3480156106ac57600080fd5b506106c760048036038101906106c29190612ab5565b61161f565b005b60007f780e9d63000000000000000000000000000000000000000000000000000000007bffffffffffffffffffffffffffffffffffffffffffffffffffffffff1916827bffffffffffffffffffffffffffffffffffffffffffffffffffffffff1916148061073c575061073b82611717565b5b9050919050565b60606000805461075290613c30565b80601f016020809104026020016040519081016040528092919081815260200182805461077e90613c30565b80156107cb5780601f106107a0576101008083540402835291602001916107cb565b820191906000526020600020905b8154815290600101906020018083116107ae57829003601f168201915b5050505050905090565b60006107e0826117f9565b61081f576040517f08c379a000000000000000000000000000000000000000000000000000000000815260040161081690613876565b60405180910390fd5b6004600083815260200190815260200160002060009054906101000a900473ffffffffffffffffffffffffffffffffffffffff169050919050565b600061086582610edc565b90508073ffffffffffffffffffffffffffffffffffffffff168373ffffffffffffffffffffffffffffffffffffffff1614156108d6576040517f08c379a00000000000000000000000000000000000000000000000000000000081526004016108cd90613916565b60405180910390fd5b8073ffffffffffffffffffffffffffffffffffffffff166108f5611865565b73ffffffffffffffffffffffffffffffffffffffff16148061092457506109238161091e611865565b611578565b5b610963576040517f08c379a000000000000000000000000000000000000000000000000000000000815260040161095a906137f6565b60405180910390fd5b61096d838361186d565b505050565b600c60009054906101000a900460ff166109c1576040517f08c379a00000000000000000000000000000000000000000000000000000000081526004016109b8906136b6565b60405180910390fd5b6014811115610a05576040517f08c379a00000000000000000000000000000000000000000000000000000000081526004016109fc906137d6565b60405180910390fd5b600b54610a2282610a14610b0a565b61192690919063ffffffff16565b1115610a63576040517f08c379a0000000000000000000000000000000000000000000000000000000008152600401610a5a906138b6565b60405180910390fd5b34610a7e82662386f26fc1000061193c90919063ffffffff16565b1115610abf576040517f08c379a0000000000000000000000000000000000000000000000000000000008152600401610ab690613796565b60405180910390fd5b60005b81811015610b06576000610ad4610b0a565b9050600b54610ae1610b0a565b1015610af257610af13382611952565b5b508080610afe90613c62565b915050610ac2565b5050565b6000600880549050905090565b610b28610b22611865565b82611970565b610b67576040517f08c379a0000000000000000000000000000000000000000000000000000000008152600401610b5e90613936565b60405180910390fd5b610b72838383611a4e565b505050565b6000610b8283611021565b8210610bc3576040517f08c379a0000000000000000000000000000000000000000000000000000000008152600401610bba906136d6565b60405180910390fd5b600660008473ffffffffffffffffffffffffffffffffffffffff1673ffffffffffffffffffffffffffffffffffffffff168152602001908152602001600020600083815260200190815260200160002054905092915050565b610c24611865565b73ffffffffffffffffffffffffffffffffffffffff16610c42611221565b73ffffffffffffffffffffffffffffffffffffffff1614610c98576040517f08c379a0000000000000000000000000000000000000000000000000000000008152600401610c8f90613896565b60405180910390fd5b600c60009054906101000a900460ff1615600c60006101000a81548160ff021916908315150217905550565b610ccc611865565b73ffffffffffffffffffffffffffffffffffffffff16610cea611221565b73ffffffffffffffffffffffffffffffffffffffff1614610d40576040517f08c379a0000000000000000000000000000000000000000000000000000000008152600401610d3790613896565b60405180910390fd5b60004790503373ffffffffffffffffffffffffffffffffffffffff166108fc829081150290604051600060405180830381858888f19350505050158015610d8b573d6000803e3d6000fd5b5050565b610daa8383836040518060200160405280600081525061145e565b505050565b6000610db9610b0a565b8210610dfa576040517f08c379a0000000000000000000000000000000000000000000000000000000008152600401610df190613956565b60405180910390fd5b60088281548110610e34577f4e487b7100000000000000000000000000000000000000000000000000000000600052603260045260246000fd5b90600052602060002001549050919050565b610e4e611865565b73ffffffffffffffffffffffffffffffffffffffff16610e6c611221565b73ffffffffffffffffffffffffffffffffffffffff1614610ec2576040517f08c379a0000000000000000000000000000000000000000000000000000000008152600401610eb990613896565b60405180910390fd5b80600d9080519060200190610ed89291906128d9565b5050565b6000806002600084815260200190815260200160002060009054906101000a900473ffffffffffffffffffffffffffffffffffffffff169050600073ffffffffffffffffffffffffffffffffffffffff168173ffffffffffffffffffffffffffffffffffffffff161415610f85576040517f08c379a0000000000000000000000000000000000000000000000000000000008152600401610f7c90613836565b60405180910390fd5b80915050919050565b601481565b600d8054610fa090613c30565b80601f0160208091040260200160405190810160405280929190818152602001828054610fcc90613c30565b80156110195780601f10610fee57610100808354040283529160200191611019565b820191906000526020600020905b815481529060010190602001808311610ffc57829003601f168201915b505050505081565b60008073ffffffffffffffffffffffffffffffffffffffff168273ffffffffffffffffffffffffffffffffffffffff161415611092576040517f08c379a000000000000000000000000000000000000000000000000000000000815260040161108990613816565b60405180910390fd5b600360008373ffffffffffffffffffffffffffffffffffffffff1673ffffffffffffffffffffffffffffffffffffffff168152602001908152602001600020549050919050565b6110e1611865565b73ffffffffffffffffffffffffffffffffffffffff166110ff611221565b73ffffffffffffffffffffffffffffffffffffffff1614611155576040517f08c379a000000000000000000000000000000000000000000000000000000000815260040161114c90613896565b60405180910390fd5b61115f6000611caa565b565b611169611865565b73ffffffffffffffffffffffffffffffffffffffff16611187611221565b73ffffffffffffffffffffffffffffffffffffffff16146111dd576040517f08c379a00000000000000000000000000000000000000000000000000000000081526004016111d490613896565b60405180910390fd5b60006111e7610b0a565b905060005b601e81101561121d5761120a3382846112059190613a65565b611952565b808061121590613c62565b9150506111ec565b5050565b6000600a60009054906101000a900473ffffffffffffffffffffffffffffffffffffffff16905090565b60606001805461125a90613c30565b80601f016020809104026020016040519081016040528092919081815260200182805461128690613c30565b80156112d35780601f106112a8576101008083540402835291602001916112d3565b820191906000526020600020905b8154815290600101906020018083116112b657829003601f168201915b5050505050905090565b6112e5611865565b73ffffffffffffffffffffffffffffffffffffffff168273ffffffffffffffffffffffffffffffffffffffff161415611353576040517f08c379a000000000000000000000000000000000000000000000000000000000815260040161134a90613776565b60405180910390fd5b8060056000611360611865565b73ffffffffffffffffffffffffffffffffffffffff1673ffffffffffffffffffffffffffffffffffffffff16815260200190815260200160002060008473ffffffffffffffffffffffffffffffffffffffff1673ffffffffffffffffffffffffffffffffffffffff16815260200190815260200160002060006101000a81548160ff0219169083151502179055508173ffffffffffffffffffffffffffffffffffffffff1661140d611865565b73ffffffffffffffffffffffffffffffffffffffff167f17307eab39ab6107e8899845ad3d59bd9653f200f220920489ca2b5937696c31836040516114529190613679565b60405180910390a35050565b61146f611469611865565b83611970565b6114ae576040517f08c379a00000000000000000000000000000000000000000000000000000000081526004016114a590613936565b60405180910390fd5b6114ba84848484611d70565b50505050565b600b5481565b60606114d1826117f9565b611510576040517f08c379a0000000000000000000000000000000000000000000000000000000008152600401611507906138f6565b60405180910390fd5b600061151a611dcc565b9050600081511161153a5760405180602001604052806000815250611565565b8061154484611e5e565b6040516020016115559291906135ee565b6040516020818303038152906040525b915050919050565b662386f26fc1000081565b6000600560008473ffffffffffffffffffffffffffffffffffffffff1673ffffffffffffffffffffffffffffffffffffffff16815260200190815260200160002060008373ffffffffffffffffffffffffffffffffffffffff1673ffffffffffffffffffffffffffffffffffffffff16815260200190815260200160002060009054906101000a900460ff16905092915050565b600c60009054906101000a900460ff1681565b611627611865565b73ffffffffffffffffffffffffffffffffffffffff16611645611221565b73ffffffffffffffffffffffffffffffffffffffff161461169b576040517f08c379a000000000000000000000000000000000000000000000000000000000815260040161169290613896565b60405180910390fd5b600073ffffffffffffffffffffffffffffffffffffffff168173ffffffffffffffffffffffffffffffffffffffff16141561170b576040517f08c379a000000000000000000000000000000000000000000000000000000000815260040161170290613716565b60405180910390fd5b61171481611caa565b50565b60007f80ac58cd000000000000000000000000000000000000000000000000000000007bffffffffffffffffffffffffffffffffffffffffffffffffffffffff1916827bffffffffffffffffffffffffffffffffffffffffffffffffffffffff191614806117e257507f5b5e139f000000000000000000000000000000000000000000000000000000007bffffffffffffffffffffffffffffffffffffffffffffffffffffffff1916827bffffffffffffffffffffffffffffffffffffffffffffffffffffffff1916145b806117f257506117f18261200b565b5b9050919050565b60008073ffffffffffffffffffffffffffffffffffffffff166002600084815260200190815260200160002060009054906101000a900473ffffffffffffffffffffffffffffffffffffffff1673ffffffffffffffffffffffffffffffffffffffff1614159050919050565b600033905090565b816004600083815260200190815260200160002060006101000a81548173ffffffffffffffffffffffffffffffffffffffff021916908373ffffffffffffffffffffffffffffffffffffffff160217905550808273ffffffffffffffffffffffffffffffffffffffff166118e083610edc565b73ffffffffffffffffffffffffffffffffffffffff167f8c5be1e5ebec7d5bd14f71427d1e84f3dd0314c0f7b2291e5b200ac8c7c3b92560405160405180910390a45050565b600081836119349190613a65565b905092915050565b6000818361194a9190613aec565b905092915050565b61196c828260405180602001604052806000815250612075565b5050565b600061197b826117f9565b6119ba576040517f08c379a00000000000000000000000000000000000000000000000000000000081526004016119b1906137b6565b60405180910390fd5b60006119c583610edc565b90508073ffffffffffffffffffffffffffffffffffffffff168473ffffffffffffffffffffffffffffffffffffffff161480611a3457508373ffffffffffffffffffffffffffffffffffffffff16611a1c846107d5565b73ffffffffffffffffffffffffffffffffffffffff16145b80611a455750611a448185611578565b5b91505092915050565b8273ffffffffffffffffffffffffffffffffffffffff16611a6e82610edc565b73ffffffffffffffffffffffffffffffffffffffff1614611ac4576040517f08c379a0000000000000000000000000000000000000000000000000000000008152600401611abb906138d6565b60405180910390fd5b600073ffffffffffffffffffffffffffffffffffffffff168273ffffffffffffffffffffffffffffffffffffffff161415611b34576040517f08c379a0000000000000000000000000000000000000000000000000000000008152600401611b2b90613756565b60405180910390fd5b611b3f8383836120d0565b611b4a60008261186d565b6001600360008573ffffffffffffffffffffffffffffffffffffffff1673ffffffffffffffffffffffffffffffffffffffff1681526020019081526020016000206000828254611b9a9190613b46565b925050819055506001600360008473ffffffffffffffffffffffffffffffffffffffff1673ffffffffffffffffffffffffffffffffffffffff1681526020019081526020016000206000828254611bf19190613a65565b92505081905550816002600083815260200190815260200160002060006101000a81548173ffffffffffffffffffffffffffffffffffffffff021916908373ffffffffffffffffffffffffffffffffffffffff160217905550808273ffffffffffffffffffffffffffffffffffffffff168473ffffffffffffffffffffffffffffffffffffffff167fddf252ad1be2c89b69c2b068fc378daa952ba7f163c4a11628f55a4df523b3ef60405160405180910390a4505050565b6000600a60009054906101000a900473ffffffffffffffffffffffffffffffffffffffff16905081600a60006101000a81548173ffffffffffffffffffffffffffffffffffffffff021916908373ffffffffffffffffffffffffffffffffffffffff1602179055508173ffffffffffffffffffffffffffffffffffffffff168173ffffffffffffffffffffffffffffffffffffffff167f8be0079c531659141344cd1fd0a4f28419497f9722a3daafe3b4186f6b6457e060405160405180910390a35050565b611d7b848484611a4e565b611d87848484846121e4565b611dc6576040517f08c379a0000000000000000000000000000000000000000000000000000000008152600401611dbd906136f6565b60405180910390fd5b50505050565b6060600d8054611ddb90613c30565b80601f0160208091040260200160405190810160405280929190818152602001828054611e0790613c30565b8015611e545780601f10611e2957610100808354040283529160200191611e54565b820191906000526020600020905b815481529060010190602001808311611e3757829003601f168201915b5050505050905090565b60606000821415611ea6576040518060400160405280600181526020017f30000000000000000000000000000000000000000000000000000000000000008152509050612006565b600082905060005b60008214611ed8578080611ec190613c62565b915050600a82611ed19190613abb565b9150611eae565b60008167ffffffffffffffff811115611f1a577f4e487b7100000000000000000000000000000000000000000000000000000000600052604160045260246000fd5b6040519080825280601f01601f191660200182016040528015611f4c5781602001600182028036833780820191505090505b5090505b60008514611fff57600182611f659190613b46565b9150600a85611f749190613cab565b6030611f809190613a65565b60f81b818381518110611fbc577f4e487b7100000000000000000000000000000000000000000000000000000000600052603260045260246000fd5b60200101907effffffffffffffffffffffffffffffffffffffffffffffffffffffffffffff1916908160001a905350600a85611ff89190613abb565b9450611f50565b8093505050505b919050565b60007f01ffc9a7000000000000000000000000000000000000000000000000000000007bffffffffffffffffffffffffffffffffffffffffffffffffffffffff1916827bffffffffffffffffffffffffffffffffffffffffffffffffffffffff1916149050919050565b61207f838361237b565b61208c60008484846121e4565b6120cb576040517f08c379a00000000000000000000000000000000000000000000000000000000081526004016120c2906136f6565b60405180910390fd5b505050565b6120db838383612549565b600073ffffffffffffffffffffffffffffffffffffffff168373ffffffffffffffffffffffffffffffffffffffff16141561211e576121198161254e565b61215d565b8173ffffffffffffffffffffffffffffffffffffffff168373ffffffffffffffffffffffffffffffffffffffff161461215c5761215b8382612597565b5b5b600073ffffffffffffffffffffffffffffffffffffffff168273ffffffffffffffffffffffffffffffffffffffff1614156121a05761219b81612704565b6121df565b8273ffffffffffffffffffffffffffffffffffffffff168273ffffffffffffffffffffffffffffffffffffffff16146121de576121dd8282612847565b5b5b505050565b60006122058473ffffffffffffffffffffffffffffffffffffffff166128c6565b1561236e578373ffffffffffffffffffffffffffffffffffffffff1663150b7a0261222e611865565b8786866040518563ffffffff1660e01b8152600401612250949392919061362d565b602060405180830381600087803b15801561226a57600080fd5b505af192505050801561229b57506040513d601f19601f820116820180604052508101906122989190612c85565b60015b61231e573d80600081146122cb576040519150601f19603f3d011682016040523d82523d6000602084013e6122d0565b606091505b50600081511415612316576040517f08c379a000000000000000000000000000000000000000000000000000000000815260040161230d906136f6565b60405180910390fd5b805181602001fd5b63150b7a0260e01b7bffffffffffffffffffffffffffffffffffffffffffffffffffffffff1916817bffffffffffffffffffffffffffffffffffffffffffffffffffffffff191614915050612373565b600190505b949350505050565b600073ffffffffffffffffffffffffffffffffffffffff168273ffffffffffffffffffffffffffffffffffffffff1614156123eb576040517f08c379a00000000000000000000000000000000000000000000000000000000081526004016123e290613856565b60405180910390fd5b6123f4816117f9565b15612434576040517f08c379a000000000000000000000000000000000000000000000000000000000815260040161242b90613736565b60405180910390fd5b612440600083836120d0565b6001600360008473ffffffffffffffffffffffffffffffffffffffff1673ffffffffffffffffffffffffffffffffffffffff16815260200190815260200160002060008282546124909190613a65565b92505081905550816002600083815260200190815260200160002060006101000a81548173ffffffffffffffffffffffffffffffffffffffff021916908373ffffffffffffffffffffffffffffffffffffffff160217905550808273ffffffffffffffffffffffffffffffffffffffff16600073ffffffffffffffffffffffffffffffffffffffff167fddf252ad1be2c89b69c2b068fc378daa952ba7f163c4a11628f55a4df523b3ef60405160405180910390a45050565b505050565b6008805490506009600083815260200190815260200160002081905550600881908060018154018082558091505060019003906000526020600020016000909190919091505550565b600060016125a484611021565b6125ae9190613b46565b9050600060076000848152602001908152602001600020549050818114612693576000600660008673ffffffffffffffffffffffffffffffffffffffff1673ffffffffffffffffffffffffffffffffffffffff168152602001908152602001600020600084815260200190815260200160002054905080600660008773ffffffffffffffffffffffffffffffffffffffff1673ffffffffffffffffffffffffffffffffffffffff168152602001908152602001600020600084815260200190815260200160002081905550816007600083815260200190815260200160002081905550505b6007600084815260200190815260200160002060009055600660008573ffffffffffffffffffffffffffffffffffffffff1673ffffffffffffffffffffffffffffffffffffffff16815260200190815260200160002060008381526020019081526020016000206000905550505050565b600060016008805490506127189190613b46565b905060006009600084815260200190815260200160002054905060006008838154811061276e577f4e487b7100000000000000000000000000000000000000000000000000000000600052603260045260246000fd5b9060005260206000200154905080600883815481106127b6577f4e487b7100000000000000000000000000000000000000000000000000000000600052603260045260246000fd5b90600052602060002001819055508160096000838152602001908152602001600020819055506009600085815260200190815260200160002060009055600880548061282b577f4e487b7100000000000000000000000000000000000000000000000000000000600052603160045260246000fd5b6001900381819060005260206000200160009055905550505050565b600061285283611021565b905081600660008573ffffffffffffffffffffffffffffffffffffffff1673ffffffffffffffffffffffffffffffffffffffff168152602001908152602001600020600083815260200190815260200160002081905550806007600084815260200190815260200160002081905550505050565b600080823b905060008111915050919050565b8280546128e590613c30565b90600052602060002090601f016020900481019282612907576000855561294e565b82601f1061292057805160ff191683800117855561294e565b8280016001018555821561294e579182015b8281111561294d578251825591602001919060010190612932565b5b50905061295b919061295f565b5090565b5b80821115612978576000816000905550600101612960565b5090565b600061298f61298a846139c2565b613991565b9050828152602081018484840111156129a757600080fd5b6129b2848285613bee565b509392505050565b60006129cd6129c8846139f2565b613991565b9050828152602081018484840111156129e557600080fd5b6129f0848285613bee565b509392505050565b600081359050612a0781613da9565b92915050565b600081359050612a1c81613dc0565b92915050565b600081359050612a3181613dd7565b92915050565b600081519050612a4681613dd7565b92915050565b600082601f830112612a5d57600080fd5b8135612a6d84826020860161297c565b91505092915050565b600082601f830112612a8757600080fd5b8135612a978482602086016129ba565b91505092915050565b600081359050612aaf81613dee565b92915050565b600060208284031215612ac757600080fd5b6000612ad5848285016129f8565b91505092915050565b60008060408385031215612af157600080fd5b6000612aff858286016129f8565b9250506020612b10858286016129f8565b9150509250929050565b600080600060608486031215612b2f57600080fd5b6000612b3d868287016129f8565b9350506020612b4e868287016129f8565b9250506040612b5f86828701612aa0565b9150509250925092565b60008060008060808587031215612b7f57600080fd5b6000612b8d878288016129f8565b9450506020612b9e878288016129f8565b9350506040612baf87828801612aa0565b925050606085013567ffffffffffffffff811115612bcc57600080fd5b612bd887828801612a4c565b91505092959194509250565b60008060408385031215612bf757600080fd5b6000612c05858286016129f8565b9250506020612c1685828601612a0d565b9150509250929050565b60008060408385031215612c3357600080fd5b6000612c41858286016129f8565b9250506020612c5285828601612aa0565b9150509250929050565b600060208284031215612c6e57600080fd5b6000612c7c84828501612a22565b91505092915050565b600060208284031215612c9757600080fd5b6000612ca584828501612a37565b91505092915050565b600060208284031215612cc057600080fd5b600082013567ffffffffffffffff811115612cda57600080fd5b612ce684828501612a76565b91505092915050565b600060208284031215612d0157600080fd5b6000612d0f84828501612aa0565b91505092915050565b612d2181613b7a565b82525050565b612d3081613b8c565b82525050565b6000612d4182613a22565b612d4b8185613a38565b9350612d5b818560208601613bfd565b612d6481613d98565b840191505092915050565b6000612d7a82613a2d565b612d848185613a49565b9350612d94818560208601613bfd565b612d9d81613d98565b840191505092915050565b6000612db382613a2d565b612dbd8185613a5a565b9350612dcd818560208601613bfd565b80840191505092915050565b6000612de6602183613a49565b91507f53616c65206d7573742062652061637469766520746f206d696e7420536c696d60008301527f65000000000000000000000000000000000000000000000000000000000000006020830152604082019050919050565b6000612e4c602b83613a49565b91507f455243373231456e756d657261626c653a206f776e657220696e646578206f7560008301527f74206f6620626f756e64730000000000000000000000000000000000000000006020830152604082019050919050565b6000612eb2603283613a49565b91507f4552433732313a207472616e7366657220746f206e6f6e20455243373231526560008301527f63656976657220696d706c656d656e74657200000000000000000000000000006020830152604082019050919050565b6000612f18602683613a49565b91507f4f776e61626c653a206e6577206f776e657220697320746865207a65726f206160008301527f64647265737300000000000000000000000000000000000000000000000000006020830152604082019050919050565b6000612f7e601c83613a49565b91507f4552433732313a20746f6b656e20616c7265616479206d696e746564000000006000830152602082019050919050565b6000612fbe602483613a49565b91507f4552433732313a207472616e7366657220746f20746865207a65726f2061646460008301527f72657373000000000000000000000000000000000000000000000000000000006020830152604082019050919050565b6000613024601983613a49565b91507f4552433732313a20617070726f766520746f2063616c6c6572000000000000006000830152602082019050919050565b6000613064601f83613a49565b91507f45746865722076616c75652073656e74206973206e6f7420636f7272656374006000830152602082019050919050565b60006130a4602c83613a49565b91507f4552433732313a206f70657261746f7220717565727920666f72206e6f6e657860008301527f697374656e7420746f6b656e00000000000000000000000000000000000000006020830152604082019050919050565b600061310a602183613a49565b91507f43616e206f6e6c79206d696e7420323020746f6b656e7320617420612074696d60008301527f65000000000000000000000000000000000000000000000000000000000000006020830152604082019050919050565b6000613170603883613a49565b91507f4552433732313a20617070726f76652063616c6c6572206973206e6f74206f7760008301527f6e6572206e6f7220617070726f76656420666f7220616c6c00000000000000006020830152604082019050919050565b60006131d6602a83613a49565b91507f4552433732313a2062616c616e636520717565727920666f7220746865207a6560008301527f726f2061646472657373000000000000000000000000000000000000000000006020830152604082019050919050565b600061323c602983613a49565b91507f4552433732313a206f776e657220717565727920666f72206e6f6e657869737460008301527f656e7420746f6b656e00000000000000000000000000000000000000000000006020830152604082019050919050565b60006132a2602083613a49565b91507f4552433732313a206d696e7420746f20746865207a65726f20616464726573736000830152602082019050919050565b60006132e2602c83613a49565b91507f4552433732313a20617070726f76656420717565727920666f72206e6f6e657860008301527f697374656e7420746f6b656e00000000000000000000000000000000000000006020830152604082019050919050565b6000613348602083613a49565b91507f4f776e61626c653a2063616c6c6572206973206e6f7420746865206f776e65726000830152602082019050919050565b6000613388602a83613a49565b91507f507572636861736520776f756c6420657863656564206d617820737570706c7960008301527f206f6620536c696d6573000000000000000000000000000000000000000000006020830152604082019050919050565b60006133ee602983613a49565b91507f4552433732313a207472616e73666572206f6620746f6b656e2074686174206960008301527f73206e6f74206f776e00000000000000000000000000000000000000000000006020830152604082019050919050565b6000613454602f83613a49565b91507f4552433732314d657461646174613a2055524920717565727920666f72206e6f60008301527f6e6578697374656e7420746f6b656e00000000000000000000000000000000006020830152604082019050919050565b60006134ba602183613a49565b91507f4552433732313a20617070726f76616c20746f2063757272656e74206f776e6560008301527f72000000000000000000000000000000000000000000000000000000000000006020830152604082019050919050565b6000613520603183613a49565b91507f4552433732313a207472616e736665722063616c6c6572206973206e6f74206f60008301527f776e6572206e6f7220617070726f7665640000000000000000000000000000006020830152604082019050919050565b6000613586602c83613a49565b91507f455243373231456e756d657261626c653a20676c6f62616c20696e646578206f60008301527f7574206f6620626f756e647300000000000000000000000000000000000000006020830152604082019050919050565b6135e881613be4565b82525050565b60006135fa8285612da8565b91506136068284612da8565b91508190509392505050565b60006020820190506136276000830184612d18565b92915050565b60006080820190506136426000830187612d18565b61364f6020830186612d18565b61365c60408301856135df565b818103606083015261366e8184612d36565b905095945050505050565b600060208201905061368e6000830184612d27565b92915050565b600060208201905081810360008301526136ae8184612d6f565b905092915050565b600060208201905081810360008301526136cf81612dd9565b9050919050565b600060208201905081810360008301526136ef81612e3f565b9050919050565b6000602082019050818103600083015261370f81612ea5565b9050919050565b6000602082019050818103600083015261372f81612f0b565b9050919050565b6000602082019050818103600083015261374f81612f71565b9050919050565b6000602082019050818103600083015261376f81612fb1565b9050919050565b6000602082019050818103600083015261378f81613017565b9050919050565b600060208201905081810360008301526137af81613057565b9050919050565b600060208201905081810360008301526137cf81613097565b9050919050565b600060208201905081810360008301526137ef816130fd565b9050919050565b6000602082019050818103600083015261380f81613163565b9050919050565b6000602082019050818103600083015261382f816131c9565b9050919050565b6000602082019050818103600083015261384f8161322f565b9050919050565b6000602082019050818103600083015261386f81613295565b9050919050565b6000602082019050818103600083015261388f816132d5565b9050919050565b600060208201905081810360008301526138af8161333b565b9050919050565b600060208201905081810360008301526138cf8161337b565b9050919050565b600060208201905081810360008301526138ef816133e1565b9050919050565b6000602082019050818103600083015261390f81613447565b9050919050565b6000602082019050818103600083015261392f816134ad565b9050919050565b6000602082019050818103600083015261394f81613513565b9050919050565b6000602082019050818103600083015261396f81613579565b9050919050565b600060208201905061398b60008301846135df565b92915050565b6000604051905081810181811067ffffffffffffffff821117156139b8576139b7613d69565b5b8060405250919050565b600067ffffffffffffffff8211156139dd576139dc613d69565b5b601f19601f8301169050602081019050919050565b600067ffffffffffffffff821115613a0d57613a0c613d69565b5b601f19601f8301169050602081019050919050565b600081519050919050565b600081519050919050565b600082825260208201905092915050565b600082825260208201905092915050565b600081905092915050565b6000613a7082613be4565b9150613a7b83613be4565b9250827fffffffffffffffffffffffffffffffffffffffffffffffffffffffffffffffff03821115613ab057613aaf613cdc565b5b828201905092915050565b6000613ac682613be4565b9150613ad183613be4565b925082613ae157613ae0613d0b565b5b828204905092915050565b6000613af782613be4565b9150613b0283613be4565b9250817fffffffffffffffffffffffffffffffffffffffffffffffffffffffffffffffff0483118215151615613b3b57613b3a613cdc565b5b828202905092915050565b6000613b5182613be4565b9150613b5c83613be4565b925082821015613b6f57613b6e613cdc565b5b828203905092915050565b6000613b8582613bc4565b9050919050565b60008115159050919050565b60007fffffffff0000000000000000000000000000000000000000000000000000000082169050919050565b600073ffffffffffffffffffffffffffffffffffffffff82169050919050565b6000819050919050565b82818337600083830152505050565b60005b83811015613c1b578082015181840152602081019050613c00565b83811115613c2a576000848401525b50505050565b60006002820490506001821680613c4857607f821691505b60208210811415613c5c57613c5b613d3a565b5b50919050565b6000613c6d82613be4565b91507fffffffffffffffffffffffffffffffffffffffffffffffffffffffffffffffff821415613ca057613c9f613cdc565b5b600182019050919050565b6000613cb682613be4565b9150613cc183613be4565b925082613cd157613cd0613d0b565b5b828206905092915050565b7f4e487b7100000000000000000000000000000000000000000000000000000000600052601160045260246000fd5b7f4e487b7100000000000000000000000000000000000000000000000000000000600052601260045260246000fd5b7f4e487b7100000000000000000000000000000000000000000000000000000000600052602260045260246000fd5b7f4e487b7100000000000000000000000000000000000000000000000000000000600052604160045260246000fd5b6000601f19601f8301169050919050565b613db281613b7a565b8114613dbd57600080fd5b50565b613dc981613b8c565b8114613dd457600080fd5b50565b613de081613b98565b8114613deb57600080fd5b50565b613df781613be4565b8114613e0257600080fd5b5056fea264697066735822122080cba53d10e0b9be5262d7c927041f793cd023980d528383089fd495485a117464736f6c63430008000033",
  "immutableReferences": {},
  "source": "pragma solidity ^0.8.0;\n\nimport \"@openzeppelin/contracts/token/ERC721/extensions/ERC721Enumerable.sol\";\nimport \"@openzeppelin/contracts/token/ERC721/extensions/ERC721URIStorage.sol\";\nimport \"@openzeppelin/contracts/access/Ownable.sol\";\nimport \"@openzeppelin/contracts/utils/math/SafeMath.sol\";\n\ncontract Slime is ERC721Enumerable, Ownable{\n\n  using SafeMath for uint256;\n  uint256 public constant slimePrice = 10000000000000000; //0.01 ETH\n  uint256 public maxSlimes;\n  bool public saleIsActive = false;\n  string public baseURI = \"\";\n  uint public constant maxSlimePurchase = 20;\n\n\n  constructor(string memory name, string memory symbol, uint256 maxNftSupply) ERC721(name, symbol) {\n      maxSlimes = maxNftSupply;\n      //REVEAL_TIMESTAMP = saleStart + (86400 * 9);\n  }\n\n  function withdraw() public onlyOwner {\n      uint balance = address(this).balance;\n      payable(msg.sender).transfer(balance);  //need to convert msg.sender from type 'address' to type 'payable address' in solidity >0.8.0\n  }\n\n\n  function reserveSlimes() public onlyOwner {\n      uint supply = totalSupply();\n      uint i;\n      for (i = 0; i < 30; i++) {\n          _safeMint(msg.sender, supply + i);\n      }\n  }\n\n  function setBaseURI(string memory ipfsBaseURI) public onlyOwner {\n    baseURI = ipfsBaseURI;\n  }\n\n  function _baseURI() internal view override returns (string memory) {\n      return baseURI;\n  }\n\n  function flipSaleState() public onlyOwner {\n      saleIsActive = !saleIsActive;\n  }\n\n  function mintSlime(uint numberOfTokens) public payable {\n      require(saleIsActive, \"Sale must be active to mint Slime\");\n      require(numberOfTokens <= maxSlimePurchase, \"Can only mint 20 tokens at a time\");\n      require(totalSupply().add(numberOfTokens) <= maxSlimes, \"Purchase would exceed max supply of Slimes\");\n      require(slimePrice.mul(numberOfTokens) <= msg.value, \"Ether value sent is not correct\");\n\n      for(uint i = 0; i < numberOfTokens; i++) {\n          uint mintIndex = totalSupply();\n          if (totalSupply() < maxSlimes) {\n              _safeMint(msg.sender, mintIndex);\n          }\n      }\n      /*\n      // If we haven't set the starting index and this is either 1) the last saleable token or 2) the first token to be sold after\n      // the end of pre-sale, set the starting index block\n      if (startingIndexBlock == 0 && (totalSupply() == MAX_APES || block.timestamp >= REVEAL_TIMESTAMP)) {//?? what is startingIndexBlock used for? is this the index of the current eth block?\n          startingIndexBlock = block.number;\n      }\n      */\n  }\n\n\n}\n",
  "sourcePath": "/Users/luke/Documents/slimes/contracts/Slime.sol",
  "compiler": {
    "name": "solc",
    "version": "0.8.0+commit.c7dfd78e.Emscripten.clang"
  },
  "schemaVersion": "3.4.3",
  "updatedAt": "2021-09-18T17:48:45.369Z",
  "networkType": "ethereum",
  "devdoc": {
    "kind": "dev",
    "methods": {
      "approve(address,uint256)": {
        "details": "See {IERC721-approve}."
      },
      "balanceOf(address)": {
        "details": "See {IERC721-balanceOf}."
      },
      "getApproved(uint256)": {
        "details": "See {IERC721-getApproved}."
      },
      "isApprovedForAll(address,address)": {
        "details": "See {IERC721-isApprovedForAll}."
      },
      "name()": {
        "details": "See {IERC721Metadata-name}."
      },
      "owner()": {
        "details": "Returns the address of the current owner."
      },
      "ownerOf(uint256)": {
        "details": "See {IERC721-ownerOf}."
      },
      "renounceOwnership()": {
        "details": "Leaves the contract without owner. It will not be possible to call `onlyOwner` functions anymore. Can only be called by the current owner. NOTE: Renouncing ownership will leave the contract without an owner, thereby removing any functionality that is only available to the owner."
      },
      "safeTransferFrom(address,address,uint256)": {
        "details": "See {IERC721-safeTransferFrom}."
      },
      "safeTransferFrom(address,address,uint256,bytes)": {
        "details": "See {IERC721-safeTransferFrom}."
      },
      "setApprovalForAll(address,bool)": {
        "details": "See {IERC721-setApprovalForAll}."
      },
      "supportsInterface(bytes4)": {
        "details": "See {IERC165-supportsInterface}."
      },
      "symbol()": {
        "details": "See {IERC721Metadata-symbol}."
      },
      "tokenByIndex(uint256)": {
        "details": "See {IERC721Enumerable-tokenByIndex}."
      },
      "tokenOfOwnerByIndex(address,uint256)": {
        "details": "See {IERC721Enumerable-tokenOfOwnerByIndex}."
      },
      "tokenURI(uint256)": {
        "details": "See {IERC721Metadata-tokenURI}."
      },
      "totalSupply()": {
        "details": "See {IERC721Enumerable-totalSupply}."
      },
      "transferFrom(address,address,uint256)": {
        "details": "See {IERC721-transferFrom}."
      },
      "transferOwnership(address)": {
        "details": "Transfers ownership of the contract to a new account (`newOwner`). Can only be called by the current owner."
      }
    },
    "version": 1
  },
  "userdoc": {
    "kind": "user",
    "methods": {},
    "version": 1
  }
}